:020000040800F2
:100000000004002019010008730100086B010008BA
:100010006F01000861010008E30100080000000012
:100020000000000000000000000000007701000850
:100030006501000800000000750100087901000852
:1000400033010008330100083301000833010008C0
:10005000330100083301000867010008330100087C
:1000600033010008330100083301000833010008A0
:100070003301000833010008330100083301000890
:100080003301000833010008330100083301000880
:10009000E1010008330100083301000833010008C2
:1000A0003301000833010008330100083301000860
:1000B0003301000833010008330100083301000850
:1000C0003301000833010008330100083301000840
:1000D0003301000833010008330100083301000830
:1000E0006901000833010008330100080000000026
:1000F0000000000000000000000000000000000000
:1001000033010008DFF80CD000F018F80048004771
:100110000502000800040020064880470648004702
:10012000FEE7FEE7FEE7FEE7FEE7FEE7FEE7FEE7A7
:10013000FEE7FEE77D01000805010008064C074DBB
:1001400006E0E06840F0010394E8070098471034A7
:10015000AC42F6D3FFF7DAFFD4020008E40200084D
:1001600000BFFEE770477047704700BFFEE700BF63
:10017000FEE77047704770477047000010B514489D
:10018000006840F0010012490860084640681149C3
:1001900008400F494860084600680F4908400C496C
:1001A00008600846006820F480200860084640681F
:1001B0000A49084006494860084600680649084060
:1001C000034908604FF41F00886000F07FF810BDFD
:1001D000001002400C00FFE8FFFFF6FEFFFF00F7F3
:1001E000704700BFFEE702E008C8121F08C1002ADE
:1001F000FAD170477047002001E001C1121F002AA8
:10020000FBD1704700BFFEE7002000212C4A126896
:1002100042F480322A4B1A6000BF401C284A126800
:1002200002F4003119B94FF6FF729042F5D1244A19
:10023000126802F400320AB900BFFEE7204A526891
:100240001F4B5A601A4652685A601A46526842F466
:1002500080625A601A46526822F440325A601A4646
:10026000526842F440325A601A465268154B1A409E
:10027000134B5A601A465268134B1A43104B5A607C
:100280001A46126842F080721A6000BF0C4A126867
:1002900002F00072002AF9D0094A526822F00302E3
:1002A000074B5A601A46526842F002025A6000BF79
:1002B000034A526802F00802002AF9D07047000091
:1002C00000100240FFFFC3F700001C0810B5FFF745
:1002D0009BFF10BDE40200080000002000040000A5
:0402E000F60100081B
:0400000508000105E9
:00000001FF
